{
  "_format": "hh-sol-artifact-1",
  "contractName": "HolymolyPlayer",
  "sourceName": "contracts/HolymolyPlayer.sol",
  "abi": [
    {
      "anonymous": false,
      "inputs": [
        {
          "indexed": true,
          "internalType": "uint256",
          "name": "tokenId",
          "type": "uint256"
        },
        {
          "indexed": true,
          "internalType": "address",
          "name": "buyer",
          "type": "address"
        },
        {
          "indexed": false,
          "internalType": "uint256",
          "name": "price",
          "type": "uint256"
        }
      ],
      "name": "MusicBought",
      "type": "event"
    },
    {
      "anonymous": false,
      "inputs": [
        {
          "indexed": true,
          "internalType": "uint256",
          "name": "tokenId",
          "type": "uint256"
        },
        {
          "indexed": true,
          "internalType": "address",
          "name": "liker",
          "type": "address"
        }
      ],
      "name": "MusicLiked",
      "type": "event"
    },
    {
      "anonymous": false,
      "inputs": [
        {
          "indexed": true,
          "internalType": "uint256",
          "name": "tokenId",
          "type": "uint256"
        },
        {
          "indexed": true,
          "internalType": "address",
          "name": "author",
          "type": "address"
        },
        {
          "indexed": false,
          "internalType": "string",
          "name": "musicName",
          "type": "string"
        }
      ],
      "name": "MusicUploaded",
      "type": "event"
    },
    {
      "inputs": [
        {
          "internalType": "uint256",
          "name": "tokenId",
          "type": "uint256"
        }
      ],
      "name": "buyMusic",
      "outputs": [],
      "stateMutability": "payable",
      "type": "function"
    },
    {
      "inputs": [],
      "name": "getAllMusic",
      "outputs": [
        {
          "components": [
            {
              "internalType": "uint256",
              "name": "tokenId",
              "type": "uint256"
            },
            {
              "internalType": "address payable",
              "name": "owner",
              "type": "address"
            },
            {
              "internalType": "address payable",
              "name": "author",
              "type": "address"
            },
            {
              "internalType": "uint256",
              "name": "price",
              "type": "uint256"
            },
            {
              "internalType": "uint256",
              "name": "likes",
              "type": "uint256"
            },
            {
              "internalType": "string",
              "name": "musicName",
              "type": "string"
            },
            {
              "internalType": "string",
              "name": "imageCID",
              "type": "string"
            },
            {
              "internalType": "string",
              "name": "audioCID",
              "type": "string"
            }
          ],
          "internalType": "struct HolymolyPlayer.MusicToken[]",
          "name": "",
          "type": "tuple[]"
        }
      ],
      "stateMutability": "view",
      "type": "function"
    },
    {
      "inputs": [],
      "name": "getLikedMusicByUser",
      "outputs": [
        {
          "components": [
            {
              "internalType": "uint256",
              "name": "tokenId",
              "type": "uint256"
            },
            {
              "internalType": "address payable",
              "name": "owner",
              "type": "address"
            },
            {
              "internalType": "address payable",
              "name": "author",
              "type": "address"
            },
            {
              "internalType": "uint256",
              "name": "price",
              "type": "uint256"
            },
            {
              "internalType": "uint256",
              "name": "likes",
              "type": "uint256"
            },
            {
              "internalType": "string",
              "name": "musicName",
              "type": "string"
            },
            {
              "internalType": "string",
              "name": "imageCID",
              "type": "string"
            },
            {
              "internalType": "string",
              "name": "audioCID",
              "type": "string"
            }
          ],
          "internalType": "struct HolymolyPlayer.MusicToken[]",
          "name": "",
          "type": "tuple[]"
        }
      ],
      "stateMutability": "view",
      "type": "function"
    },
    {
      "inputs": [],
      "name": "getMyBoughtMusics",
      "outputs": [
        {
          "components": [
            {
              "internalType": "uint256",
              "name": "tokenId",
              "type": "uint256"
            },
            {
              "internalType": "address payable",
              "name": "owner",
              "type": "address"
            },
            {
              "internalType": "address payable",
              "name": "author",
              "type": "address"
            },
            {
              "internalType": "uint256",
              "name": "price",
              "type": "uint256"
            },
            {
              "internalType": "uint256",
              "name": "likes",
              "type": "uint256"
            },
            {
              "internalType": "string",
              "name": "musicName",
              "type": "string"
            },
            {
              "internalType": "string",
              "name": "imageCID",
              "type": "string"
            },
            {
              "internalType": "string",
              "name": "audioCID",
              "type": "string"
            }
          ],
          "internalType": "struct HolymolyPlayer.MusicToken[]",
          "name": "",
          "type": "tuple[]"
        }
      ],
      "stateMutability": "view",
      "type": "function"
    },
    {
      "inputs": [],
      "name": "getMyMusics",
      "outputs": [
        {
          "components": [
            {
              "internalType": "uint256",
              "name": "tokenId",
              "type": "uint256"
            },
            {
              "internalType": "address payable",
              "name": "owner",
              "type": "address"
            },
            {
              "internalType": "address payable",
              "name": "author",
              "type": "address"
            },
            {
              "internalType": "uint256",
              "name": "price",
              "type": "uint256"
            },
            {
              "internalType": "uint256",
              "name": "likes",
              "type": "uint256"
            },
            {
              "internalType": "string",
              "name": "musicName",
              "type": "string"
            },
            {
              "internalType": "string",
              "name": "imageCID",
              "type": "string"
            },
            {
              "internalType": "string",
              "name": "audioCID",
              "type": "string"
            }
          ],
          "internalType": "struct HolymolyPlayer.MusicToken[]",
          "name": "",
          "type": "tuple[]"
        }
      ],
      "stateMutability": "view",
      "type": "function"
    },
    {
      "inputs": [
        {
          "internalType": "uint256",
          "name": "tokenId",
          "type": "uint256"
        }
      ],
      "name": "getTotalLikes",
      "outputs": [
        {
          "internalType": "uint256",
          "name": "",
          "type": "uint256"
        }
      ],
      "stateMutability": "view",
      "type": "function"
    },
    {
      "inputs": [
        {
          "internalType": "uint256",
          "name": "tokenId",
          "type": "uint256"
        }
      ],
      "name": "likeMusic",
      "outputs": [],
      "stateMutability": "nonpayable",
      "type": "function"
    },
    {
      "inputs": [
        {
          "internalType": "uint256",
          "name": "tokenId",
          "type": "uint256"
        }
      ],
      "name": "unlikeMusic",
      "outputs": [],
      "stateMutability": "nonpayable",
      "type": "function"
    },
    {
      "inputs": [
        {
          "internalType": "string",
          "name": "_musicName",
          "type": "string"
        },
        {
          "internalType": "string",
          "name": "_imageCID",
          "type": "string"
        },
        {
          "internalType": "string",
          "name": "_audioCID",
          "type": "string"
        },
        {
          "internalType": "uint256",
          "name": "_price",
          "type": "uint256"
        }
      ],
      "name": "uploadMusic",
      "outputs": [],
      "stateMutability": "nonpayable",
      "type": "function"
    }
  ],
  "bytecode": "0x60806040526001805534801561001457600080fd5b50612a99806100246000396000f3fe6080604052600436106100865760003560e01c80636ac028be116100595780636ac028be1461013a5780636b792d5b1461016357806375c6e6f51461018c578063cc7414d0146101b5578063d054b9ef146101e057610086565b80630feb80e61461008b5780632538c533146100c85780633e45ff47146100e45780634a4b66561461010f575b600080fd5b34801561009757600080fd5b506100b260048036038101906100ad9190611e96565b61020b565b6040516100bf9190611ed2565b60405180910390f35b6100e260048036038101906100dd9190611e96565b610228565b005b3480156100f057600080fd5b506100f96104ff565b604051610106919061214d565b60405180910390f35b34801561011b57600080fd5b506101246109a0565b604051610131919061214d565b60405180910390f35b34801561014657600080fd5b50610161600480360381019061015c91906122a4565b610cfb565b005b34801561016f57600080fd5b5061018a60048036038101906101859190611e96565b610f1c565b005b34801561019857600080fd5b506101b360048036038101906101ae9190611e96565b6111dd565b005b3480156101c157600080fd5b506101ca611432565b6040516101d7919061214d565b60405180910390f35b3480156101ec57600080fd5b506101f56117f4565b604051610202919061214d565b60405180910390f35b600060036000838152602001908152602001600020549050919050565b600080600083815260200190815260200160002090506000816000015403610285576040517f08c379a000000000000000000000000000000000000000000000000000000000815260040161027c906123bc565b60405180910390fd5b3373ffffffffffffffffffffffffffffffffffffffff168160010160009054906101000a900473ffffffffffffffffffffffffffffffffffffffff1673ffffffffffffffffffffffffffffffffffffffff1603610317576040517f08c379a000000000000000000000000000000000000000000000000000000000815260040161030e90612428565b60405180910390fd5b3373ffffffffffffffffffffffffffffffffffffffff168160020160009054906101000a900473ffffffffffffffffffffffffffffffffffffffff1673ffffffffffffffffffffffffffffffffffffffff16036103a9576040517f08c379a00000000000000000000000000000000000000000000000000000000081526004016103a090612428565b60405180910390fd5b80600301543410156103f0576040517f08c379a00000000000000000000000000000000000000000000000000000000081526004016103e790612494565b60405180910390fd5b60008160010160009054906101000a900473ffffffffffffffffffffffffffffffffffffffff1690508073ffffffffffffffffffffffffffffffffffffffff166108fc83600301549081150290604051600060405180830381858888f19350505050158015610463573d6000803e3d6000fd5b50338260010160006101000a81548173ffffffffffffffffffffffffffffffffffffffff021916908373ffffffffffffffffffffffffffffffffffffffff1602179055503373ffffffffffffffffffffffffffffffffffffffff16837f36b7402e3697821c4bcfe9ac412c0b7922a9308d632b152d8384b9a3be73ad1084600301546040516104f29190611ed2565b60405180910390a3505050565b6060600080600190505b60015481101561059d573373ffffffffffffffffffffffffffffffffffffffff1660008083815260200190815260200160002060020160009054906101000a900473ffffffffffffffffffffffffffffffffffffffff1673ffffffffffffffffffffffffffffffffffffffff160361058a578180610586906124e3565b9250505b8080610595906124e3565b915050610509565b5060008167ffffffffffffffff8111156105ba576105b9612179565b5b6040519080825280602002602001820160405280156105f357816020015b6105e0611d71565b8152602001906001900390816105d85790505b509050600080600190505b600154811015610996573373ffffffffffffffffffffffffffffffffffffffff1660008083815260200190815260200160002060020160009054906101000a900473ffffffffffffffffffffffffffffffffffffffff1673ffffffffffffffffffffffffffffffffffffffff16036109835760405180610100016040528060008084815260200190815260200160002060000154815260200160008084815260200190815260200160002060010160009054906101000a900473ffffffffffffffffffffffffffffffffffffffff1673ffffffffffffffffffffffffffffffffffffffff16815260200160008084815260200190815260200160002060020160009054906101000a900473ffffffffffffffffffffffffffffffffffffffff1673ffffffffffffffffffffffffffffffffffffffff168152602001600080848152602001908152602001600020600301548152602001600080848152602001908152602001600020600401548152602001600080848152602001908152602001600020600501805461078f9061255a565b80601f01602080910402602001604051908101604052809291908181526020018280546107bb9061255a565b80156108085780601f106107dd57610100808354040283529160200191610808565b820191906000526020600020905b8154815290600101906020018083116107eb57829003601f168201915b5050505050815260200160008084815260200190815260200160002060060180546108329061255a565b80601f016020809104026020016040519081016040528092919081815260200182805461085e9061255a565b80156108ab5780601f10610880576101008083540402835291602001916108ab565b820191906000526020600020905b81548152906001019060200180831161088e57829003601f168201915b5050505050815260200160008084815260200190815260200160002060070180546108d59061255a565b80601f01602080910402602001604051908101604052809291908181526020018280546109019061255a565b801561094e5780601f106109235761010080835404028352916020019161094e565b820191906000526020600020905b81548152906001019060200180831161093157829003601f168201915b50505050508152508383815181106109695761096861258b565b5b6020026020010181905250818061097f906124e3565b9250505b808061098e906124e3565b9150506105fe565b5081935050505090565b60606000600180546109b291906125ba565b67ffffffffffffffff8111156109cb576109ca612179565b5b604051908082528060200260200182016040528015610a0457816020015b6109f1611d71565b8152602001906001900390816109e95790505b5090506000600190505b600154811015610cf35760008082815260200190815260200160002060405180610100016040529081600082015481526020016001820160009054906101000a900473ffffffffffffffffffffffffffffffffffffffff1673ffffffffffffffffffffffffffffffffffffffff1673ffffffffffffffffffffffffffffffffffffffff1681526020016002820160009054906101000a900473ffffffffffffffffffffffffffffffffffffffff1673ffffffffffffffffffffffffffffffffffffffff1673ffffffffffffffffffffffffffffffffffffffff1681526020016003820154815260200160048201548152602001600582018054610b109061255a565b80601f0160208091040260200160405190810160405280929190818152602001828054610b3c9061255a565b8015610b895780601f10610b5e57610100808354040283529160200191610b89565b820191906000526020600020905b815481529060010190602001808311610b6c57829003601f168201915b50505050508152602001600682018054610ba29061255a565b80601f0160208091040260200160405190810160405280929190818152602001828054610bce9061255a565b8015610c1b5780601f10610bf057610100808354040283529160200191610c1b565b820191906000526020600020905b815481529060010190602001808311610bfe57829003601f168201915b50505050508152602001600782018054610c349061255a565b80601f0160208091040260200160405190810160405280929190818152602001828054610c609061255a565b8015610cad5780601f10610c8257610100808354040283529160200191610cad565b820191906000526020600020905b815481529060010190602001808311610c9057829003601f168201915b50505050508152505082600183610cc491906125ba565b81518110610cd557610cd461258b565b5b60200260200101819052508080610ceb906124e3565b915050610a0e565b508091505090565b6000845111610d3f576040517f08c379a0000000000000000000000000000000000000000000000000000000008152600401610d369061263a565b60405180910390fd5b60405180610100016040528060015481526020013373ffffffffffffffffffffffffffffffffffffffff1681526020013373ffffffffffffffffffffffffffffffffffffffff168152602001828152602001600081526020018581526020018481526020018381525060008060015481526020019081526020016000206000820151816000015560208201518160010160006101000a81548173ffffffffffffffffffffffffffffffffffffffff021916908373ffffffffffffffffffffffffffffffffffffffff16021790555060408201518160020160006101000a81548173ffffffffffffffffffffffffffffffffffffffff021916908373ffffffffffffffffffffffffffffffffffffffff160217905550606082015181600301556080820151816004015560a0820151816005019081610e7d9190612806565b5060c0820151816006019081610e939190612806565b5060e0820151816007019081610ea99190612806565b509050503373ffffffffffffffffffffffffffffffffffffffff166001547fc1731d471547e930af67ac7b6518cb22212e43f91965a7f12aa417a83864f4ba86604051610ef69190612911565b60405180910390a360016000815480929190610f11906124e3565b919050555050505050565b600080600083815260200190815260200160002090506000816000015403610f79576040517f08c379a0000000000000000000000000000000000000000000000000000000008152600401610f70906123bc565b60405180910390fd5b6000600260003373ffffffffffffffffffffffffffffffffffffffff1673ffffffffffffffffffffffffffffffffffffffff168152602001908152602001600020905060005b818054905081101561103d5783828281548110610fdf57610fde61258b565b5b90600052602060002001540361102a576040517f08c379a00000000000000000000000000000000000000000000000000000000081526004016110219061297f565b60405180910390fd5b8080611035906124e3565b915050610fbf565b50816004016000815480929190611053906124e3565b919050555060036000848152602001908152602001600020600081548092919061107c906124e3565b91905055506000600260003373ffffffffffffffffffffffffffffffffffffffff1673ffffffffffffffffffffffffffffffffffffffff168152602001908152602001600020805490500361112d57604051806020016040528084815250600260003373ffffffffffffffffffffffffffffffffffffffff1673ffffffffffffffffffffffffffffffffffffffff168152602001908152602001600020906001611127929190611de2565b50611194565b600260003373ffffffffffffffffffffffffffffffffffffffff1673ffffffffffffffffffffffffffffffffffffffff1681526020019081526020016000208390806001815401808255809150506001900390600052602060002001600090919091909150555b3373ffffffffffffffffffffffffffffffffffffffff16837f201735a6ff64e1da0dc3df2d17ecf024f61008ee5d86da74e1596dc140b4a74f60405160405180910390a3505050565b60008060008381526020019081526020016000209050600081600001540361123a576040517f08c379a0000000000000000000000000000000000000000000000000000000008152600401611231906123bc565b60405180910390fd5b6000600260003373ffffffffffffffffffffffffffffffffffffffff1673ffffffffffffffffffffffffffffffffffffffff168152602001908152602001600020905060008080600090505b83805490508110156112d557858482815481106112a6576112a561258b565b5b9060005260206000200154036112c257600192508091506112d5565b80806112cd906124e3565b915050611286565b5081611316576040517f08c379a000000000000000000000000000000000000000000000000000000000815260040161130d906129eb565b60405180910390fd5b83600401600081548092919061132b90612a0b565b919050555060036000868152602001908152602001600020600081548092919061135490612a0b565b91905055506001838054905061136a91906125ba565b81146113c057826001848054905061138291906125ba565b815481106113935761139261258b565b5b90600052602060002001548382815481106113b1576113b061258b565b5b90600052602060002001819055505b828054806113d1576113d0612a34565b5b600190038181906000526020600020016000905590553373ffffffffffffffffffffffffffffffffffffffff16857f201735a6ff64e1da0dc3df2d17ecf024f61008ee5d86da74e1596dc140b4a74f60405160405180910390a35050505050565b60606000600260003373ffffffffffffffffffffffffffffffffffffffff1673ffffffffffffffffffffffffffffffffffffffff1681526020019081526020016000208054806020026020016040519081016040528092919081815260200182805480156114bf57602002820191906000526020600020905b8154815260200190600101908083116114ab575b505050505090506000815167ffffffffffffffff8111156114e3576114e2612179565b5b60405190808252806020026020018201604052801561151c57816020015b611509611d71565b8152602001906001900390816115015790505b50905060005b82518110156117eb5760008060008584815181106115435761154261258b565b5b602002602001015181526020019081526020016000209050604051806101000160405280826000015481526020018260010160009054906101000a900473ffffffffffffffffffffffffffffffffffffffff1673ffffffffffffffffffffffffffffffffffffffff1681526020018260020160009054906101000a900473ffffffffffffffffffffffffffffffffffffffff1673ffffffffffffffffffffffffffffffffffffffff16815260200182600301548152602001826004015481526020018260050180546116149061255a565b80601f01602080910402602001604051908101604052809291908181526020018280546116409061255a565b801561168d5780601f106116625761010080835404028352916020019161168d565b820191906000526020600020905b81548152906001019060200180831161167057829003601f168201915b505050505081526020018260060180546116a69061255a565b80601f01602080910402602001604051908101604052809291908181526020018280546116d29061255a565b801561171f5780601f106116f45761010080835404028352916020019161171f565b820191906000526020600020905b81548152906001019060200180831161170257829003601f168201915b505050505081526020018260070180546117389061255a565b80601f01602080910402602001604051908101604052809291908181526020018280546117649061255a565b80156117b15780601f10611786576101008083540402835291602001916117b1565b820191906000526020600020905b81548152906001019060200180831161179457829003601f168201915b50505050508152508383815181106117cc576117cb61258b565b5b60200260200101819052505080806117e3906124e3565b915050611522565b50809250505090565b6060600080600190505b600154811015611900573373ffffffffffffffffffffffffffffffffffffffff1660008083815260200190815260200160002060010160009054906101000a900473ffffffffffffffffffffffffffffffffffffffff1673ffffffffffffffffffffffffffffffffffffffff161480156118d957503373ffffffffffffffffffffffffffffffffffffffff1660008083815260200190815260200160002060020160009054906101000a900473ffffffffffffffffffffffffffffffffffffffff1673ffffffffffffffffffffffffffffffffffffffff1614155b156118ed5781806118e9906124e3565b9250505b80806118f8906124e3565b9150506117fe565b5060008167ffffffffffffffff81111561191d5761191c612179565b5b60405190808252806020026020018201604052801561195657816020015b611943611d71565b81526020019060019003908161193b5790505b509050600080600190505b600154811015611d67573373ffffffffffffffffffffffffffffffffffffffff1660008083815260200190815260200160002060010160009054906101000a900473ffffffffffffffffffffffffffffffffffffffff1673ffffffffffffffffffffffffffffffffffffffff16148015611a3c57503373ffffffffffffffffffffffffffffffffffffffff1660008083815260200190815260200160002060020160009054906101000a900473ffffffffffffffffffffffffffffffffffffffff1673ffffffffffffffffffffffffffffffffffffffff1614155b15611d545760405180610100016040528060008084815260200190815260200160002060000154815260200160008084815260200190815260200160002060010160009054906101000a900473ffffffffffffffffffffffffffffffffffffffff1673ffffffffffffffffffffffffffffffffffffffff16815260200160008084815260200190815260200160002060020160009054906101000a900473ffffffffffffffffffffffffffffffffffffffff1673ffffffffffffffffffffffffffffffffffffffff1681526020016000808481526020019081526020016000206003015481526020016000808481526020019081526020016000206004015481526020016000808481526020019081526020016000206005018054611b609061255a565b80601f0160208091040260200160405190810160405280929190818152602001828054611b8c9061255a565b8015611bd95780601f10611bae57610100808354040283529160200191611bd9565b820191906000526020600020905b815481529060010190602001808311611bbc57829003601f168201915b505050505081526020016000808481526020019081526020016000206006018054611c039061255a565b80601f0160208091040260200160405190810160405280929190818152602001828054611c2f9061255a565b8015611c7c5780601f10611c5157610100808354040283529160200191611c7c565b820191906000526020600020905b815481529060010190602001808311611c5f57829003601f168201915b505050505081526020016000808481526020019081526020016000206007018054611ca69061255a565b80601f0160208091040260200160405190810160405280929190818152602001828054611cd29061255a565b8015611d1f5780601f10611cf457610100808354040283529160200191611d1f565b820191906000526020600020905b815481529060010190602001808311611d0257829003601f168201915b5050505050815250838381518110611d3a57611d3961258b565b5b60200260200101819052508180611d50906124e3565b9250505b8080611d5f906124e3565b915050611961565b5081935050505090565b60405180610100016040528060008152602001600073ffffffffffffffffffffffffffffffffffffffff168152602001600073ffffffffffffffffffffffffffffffffffffffff16815260200160008152602001600081526020016060815260200160608152602001606081525090565b828054828255906000526020600020908101928215611e1e579160200282015b82811115611e1d578251825591602001919060010190611e02565b5b509050611e2b9190611e2f565b5090565b5b80821115611e48576000816000905550600101611e30565b5090565b6000604051905090565b600080fd5b600080fd5b6000819050919050565b611e7381611e60565b8114611e7e57600080fd5b50565b600081359050611e9081611e6a565b92915050565b600060208284031215611eac57611eab611e56565b5b6000611eba84828501611e81565b91505092915050565b611ecc81611e60565b82525050565b6000602082019050611ee76000830184611ec3565b92915050565b600081519050919050565b600082825260208201905092915050565b6000819050602082019050919050565b611f2281611e60565b82525050565b600073ffffffffffffffffffffffffffffffffffffffff82169050919050565b6000611f5382611f28565b9050919050565b611f6381611f48565b82525050565b600081519050919050565b600082825260208201905092915050565b60005b83811015611fa3578082015181840152602081019050611f88565b60008484015250505050565b6000601f19601f8301169050919050565b6000611fcb82611f69565b611fd58185611f74565b9350611fe5818560208601611f85565b611fee81611faf565b840191505092915050565b6000610100830160008301516120126000860182611f19565b5060208301516120256020860182611f5a565b5060408301516120386040860182611f5a565b50606083015161204b6060860182611f19565b50608083015161205e6080860182611f19565b5060a083015184820360a08601526120768282611fc0565b91505060c083015184820360c08601526120908282611fc0565b91505060e083015184820360e08601526120aa8282611fc0565b9150508091505092915050565b60006120c38383611ff9565b905092915050565b6000602082019050919050565b60006120e382611eed565b6120ed8185611ef8565b9350836020820285016120ff85611f09565b8060005b8581101561213b578484038952815161211c85826120b7565b9450612127836120cb565b925060208a01995050600181019050612103565b50829750879550505050505092915050565b6000602082019050818103600083015261216781846120d8565b905092915050565b600080fd5b600080fd5b7f4e487b7100000000000000000000000000000000000000000000000000000000600052604160045260246000fd5b6121b182611faf565b810181811067ffffffffffffffff821117156121d0576121cf612179565b5b80604052505050565b60006121e3611e4c565b90506121ef82826121a8565b919050565b600067ffffffffffffffff82111561220f5761220e612179565b5b61221882611faf565b9050602081019050919050565b82818337600083830152505050565b6000612247612242846121f4565b6121d9565b90508281526020810184848401111561226357612262612174565b5b61226e848285612225565b509392505050565b600082601f83011261228b5761228a61216f565b5b813561229b848260208601612234565b91505092915050565b600080600080608085870312156122be576122bd611e56565b5b600085013567ffffffffffffffff8111156122dc576122db611e5b565b5b6122e887828801612276565b945050602085013567ffffffffffffffff81111561230957612308611e5b565b5b61231587828801612276565b935050604085013567ffffffffffffffff81111561233657612335611e5b565b5b61234287828801612276565b925050606061235387828801611e81565b91505092959194509250565b600082825260208201905092915050565b7f4d7573696320546f6b656e20646f6573206e6f74206578697374000000000000600082015250565b60006123a6601a8361235f565b91506123b182612370565b602082019050919050565b600060208201905081810360008301526123d581612399565b9050919050565b7f596f752063616e6e6f742062757920796f7572206f776e206d75736963000000600082015250565b6000612412601d8361235f565b915061241d826123dc565b602082019050919050565b6000602082019050818103600083015261244181612405565b9050919050565b7f496e73756666696369656e742066756e647320746f2062757900000000000000600082015250565b600061247e60198361235f565b915061248982612448565b602082019050919050565b600060208201905081810360008301526124ad81612471565b9050919050565b7f4e487b7100000000000000000000000000000000000000000000000000000000600052601160045260246000fd5b60006124ee82611e60565b91507fffffffffffffffffffffffffffffffffffffffffffffffffffffffffffffffff82036125205761251f6124b4565b5b600182019050919050565b7f4e487b7100000000000000000000000000000000000000000000000000000000600052602260045260246000fd5b6000600282049050600182168061257257607f821691505b6020821081036125855761258461252b565b5b50919050565b7f4e487b7100000000000000000000000000000000000000000000000000000000600052603260045260246000fd5b60006125c582611e60565b91506125d083611e60565b92508282039050818111156125e8576125e76124b4565b5b92915050565b7f4d75736963206e616d652063616e6e6f7420626520656d707479000000000000600082015250565b6000612624601a8361235f565b915061262f826125ee565b602082019050919050565b6000602082019050818103600083015261265381612617565b9050919050565b60008190508160005260206000209050919050565b60006020601f8301049050919050565b600082821b905092915050565b6000600883026126bc7fffffffffffffffffffffffffffffffffffffffffffffffffffffffffffffffff8261267f565b6126c6868361267f565b95508019841693508086168417925050509392505050565b6000819050919050565b60006127036126fe6126f984611e60565b6126de565b611e60565b9050919050565b6000819050919050565b61271d836126e8565b6127316127298261270a565b84845461268c565b825550505050565b600090565b612746612739565b612751818484612714565b505050565b5b818110156127755761276a60008261273e565b600181019050612757565b5050565b601f8211156127ba5761278b8161265a565b6127948461266f565b810160208510156127a3578190505b6127b76127af8561266f565b830182612756565b50505b505050565b600082821c905092915050565b60006127dd600019846008026127bf565b1980831691505092915050565b60006127f683836127cc565b9150826002028217905092915050565b61280f82611f69565b67ffffffffffffffff81111561282857612827612179565b5b612832825461255a565b61283d828285612779565b600060209050601f831160018114612870576000841561285e578287015190505b61286885826127ea565b8655506128d0565b601f19841661287e8661265a565b60005b828110156128a657848901518255600182019150602085019450602081019050612881565b868310156128c357848901516128bf601f8916826127cc565b8355505b6001600288020188555050505b505050505050565b60006128e382611f69565b6128ed818561235f565b93506128fd818560208601611f85565b61290681611faf565b840191505092915050565b6000602082019050818103600083015261292b81846128d8565b905092915050565b7f4d7573696320697320616c7265616479206c696b656400000000000000000000600082015250565b600061296960168361235f565b915061297482612933565b602082019050919050565b600060208201905081810360008301526129988161295c565b9050919050565b7f4d75736963206973206e6f74206c696b65640000000000000000000000000000600082015250565b60006129d560128361235f565b91506129e08261299f565b602082019050919050565b60006020820190508181036000830152612a04816129c8565b9050919050565b6000612a1682611e60565b915060008203612a2957612a286124b4565b5b600182039050919050565b7f4e487b7100000000000000000000000000000000000000000000000000000000600052603160045260246000fdfea26469706673582212206aee3ae36340d5ee972edbb1ca1bc4abf6cb89818886b70a4d1abfe6c916c95c64736f6c63430008130033",
  "linkReferences": {},
  "deployedLinkReferences": {}
}